{
  "contractName": "Donate",
  "abi": [
    {
      "inputs": [],
      "stateMutability": "nonpayable",
      "type": "constructor"
    },
    {
      "anonymous": false,
      "inputs": [
        {
          "indexed": true,
          "internalType": "address",
          "name": "previousOwner",
          "type": "address"
        },
        {
          "indexed": true,
          "internalType": "address",
          "name": "newOwner",
          "type": "address"
        }
      ],
      "name": "OwnershipTransferred",
      "type": "event"
    },
    {
      "inputs": [],
      "name": "coffeePrice",
      "outputs": [
        {
          "internalType": "uint256",
          "name": "",
          "type": "uint256"
        }
      ],
      "stateMutability": "view",
      "type": "function"
    },
    {
      "inputs": [],
      "name": "owner",
      "outputs": [
        {
          "internalType": "address",
          "name": "",
          "type": "address"
        }
      ],
      "stateMutability": "view",
      "type": "function"
    },
    {
      "inputs": [],
      "name": "ownerName",
      "outputs": [
        {
          "internalType": "string",
          "name": "",
          "type": "string"
        }
      ],
      "stateMutability": "view",
      "type": "function"
    },
    {
      "inputs": [
        {
          "internalType": "string",
          "name": "",
          "type": "string"
        }
      ],
      "name": "registered",
      "outputs": [
        {
          "internalType": "address payable",
          "name": "",
          "type": "address"
        }
      ],
      "stateMutability": "view",
      "type": "function"
    },
    {
      "inputs": [],
      "name": "renounceOwnership",
      "outputs": [],
      "stateMutability": "nonpayable",
      "type": "function"
    },
    {
      "inputs": [
        {
          "internalType": "string",
          "name": "",
          "type": "string"
        }
      ],
      "name": "sum",
      "outputs": [
        {
          "internalType": "uint256",
          "name": "",
          "type": "uint256"
        }
      ],
      "stateMutability": "view",
      "type": "function"
    },
    {
      "inputs": [
        {
          "internalType": "address",
          "name": "newOwner",
          "type": "address"
        }
      ],
      "name": "transferOwnership",
      "outputs": [],
      "stateMutability": "nonpayable",
      "type": "function"
    },
    {
      "inputs": [
        {
          "internalType": "string",
          "name": "_name",
          "type": "string"
        }
      ],
      "name": "getRegistered",
      "outputs": [
        {
          "internalType": "address",
          "name": "",
          "type": "address"
        }
      ],
      "stateMutability": "view",
      "type": "function"
    },
    {
      "inputs": [
        {
          "internalType": "string",
          "name": "_user",
          "type": "string"
        }
      ],
      "name": "getReceivedCoffee",
      "outputs": [
        {
          "internalType": "uint256",
          "name": "",
          "type": "uint256"
        }
      ],
      "stateMutability": "view",
      "type": "function"
    },
    {
      "inputs": [
        {
          "internalType": "uint256",
          "name": "_coffeePrice",
          "type": "uint256"
        }
      ],
      "name": "changeCoffeePrice",
      "outputs": [],
      "stateMutability": "nonpayable",
      "type": "function"
    },
    {
      "inputs": [
        {
          "internalType": "address",
          "name": "_addr",
          "type": "address"
        }
      ],
      "name": "changeReceiveAddress",
      "outputs": [],
      "stateMutability": "nonpayable",
      "type": "function"
    },
    {
      "inputs": [
        {
          "internalType": "string",
          "name": "_user",
          "type": "string"
        }
      ],
      "name": "donate",
      "outputs": [],
      "stateMutability": "payable",
      "type": "function"
    },
    {
      "inputs": [
        {
          "internalType": "string",
          "name": "_user",
          "type": "string"
        },
        {
          "internalType": "address",
          "name": "_addr",
          "type": "address"
        }
      ],
      "name": "register",
      "outputs": [],
      "stateMutability": "nonpayable",
      "type": "function"
    }
  ],
  "bytecode": "0x662386f26fc1000060035560c060405260086080819052670ceded8c8ccd2e6d60c31b60a09081526200003691600491906200019d565b503480156200004457600080fd5b50620000503362000107565b620000fd60048054620000639062000243565b80601f0160208091040260200160405190810160405280929190818152602001828054620000919062000243565b8015620000e25780601f10620000b657610100808354040283529160200191620000e2565b820191906000526020600020905b815481529060010190602001808311620000c457829003601f168201915b5050505050620000f76200010360201b60201c565b62000157565b620002bd565b3390565b600080546001600160a01b038381166001600160a01b0319831681178455604051919092169283917f8be0079c531659141344cd1fd0a4f28419497f9722a3daafe3b4186f6b6457e09190a35050565b806001836040516200016a91906200027f565b90815260405190819003602001902080546001600160a01b03929092166001600160a01b03199092169190911790555050565b828054620001ab9062000243565b90600052602060002090601f016020900481019282620001cf57600085556200021a565b82601f10620001ea57805160ff19168380011785556200021a565b828001600101855582156200021a579182015b828111156200021a578251825591602001919060010190620001fd565b50620002289291506200022c565b5090565b5b808211156200022857600081556001016200022d565b600181811c908216806200025857607f821691505b6020821081036200027957634e487b7160e01b600052602260045260246000fd5b50919050565b6000825160005b81811015620002a2576020818601810151858301520162000286565b81811115620002b2576000828501525b509190910192915050565b610c1080620002cd6000396000f3fe6080604052600436106100c25760003560e01c8063715018a61161007f5780638da5cb5b116100595780638da5cb5b1461023a578063b5aebc8014610258578063c4469ef01461026b578063f2fde38b1461028b57600080fd5b8063715018a6146101cd57806374fbd87a146101e25780638885353b1461020257600080fd5b80631c8a4038146100c75780631e59c529146100f057806352876935146101125780635c5c96aa1461014a5780635d2d5c371461016a57806365ac2320146101ab575b600080fd5b3480156100d357600080fd5b506100dd60035481565b6040519081526020015b60405180910390f35b3480156100fc57600080fd5b5061011061010b366004610903565b6102ab565b005b34801561011e57600080fd5b5061013261012d36600461096d565b61034e565b6040516001600160a01b0390911681526020016100e7565b34801561015657600080fd5b50610110610165366004610a1e565b61037f565b34801561017657600080fd5b5061013261018536600461096d565b80516020818301810180516001825292820191909301209152546001600160a01b031681565b3480156101b757600080fd5b506101c06103c4565b6040516100e79190610a67565b3480156101d957600080fd5b50610110610452565b3480156101ee57600080fd5b506101106101fd366004610a9a565b610488565b34801561020e57600080fd5b506100dd61021d36600461096d565b805160208183018101805160028252928201919093012091525481565b34801561024657600080fd5b506000546001600160a01b0316610132565b610110610266366004610ab5565b6105f9565b34801561027757600080fd5b506100dd610286366004610ab5565b6106df565b34801561029757600080fd5b506101106102a6366004610a9a565b610772565b60006001600160a01b03166102f584848080601f01602080910402602001604051908101604052809392919081815260200183838082843760009201919091525061034e92505050565b6001600160a01b03161461030857600080fd5b61034983838080601f01602080910402602001604051908101604052809392919081815260200183838082843760009201919091525085925061080a915050565b505050565b60006001826040516103609190610af7565b908152604051908190036020019020546001600160a01b031692915050565b6000546001600160a01b031633146103b25760405162461bcd60e51b81526004016103a990610b13565b60405180910390fd5b600081116103bf57600080fd5b600355565b600480546103d190610b48565b80601f01602080910402602001604051908101604052809291908181526020018280546103fd90610b48565b801561044a5780601f1061041f5761010080835404028352916020019161044a565b820191906000526020600020905b81548152906001019060200180831161042d57829003601f168201915b505050505081565b6000546001600160a01b0316331461047c5760405162461bcd60e51b81526004016103a990610b13565b610486600061084e565b565b6000546001600160a01b031633146104b25760405162461bcd60e51b81526004016103a990610b13565b806001600160a01b031661054f600480546104cc90610b48565b80601f01602080910402602001604051908101604052809291908181526020018280546104f890610b48565b80156105455780601f1061051a57610100808354040283529160200191610545565b820191906000526020600020905b81548152906001019060200180831161052857829003601f168201915b505050505061034e565b6001600160a01b03160361056257600080fd5b6105f66004805461057290610b48565b80601f016020809104026020016040519081016040528092919081815260200182805461059e90610b48565b80156105eb5780601f106105c0576101008083540402835291602001916105eb565b820191906000526020600020905b8154815290600101906020018083116105ce57829003601f168201915b50505050508261080a565b50565b60006001600160a01b031660018383604051610616929190610b82565b908152604051908190036020019020546001600160a01b03160361063957600080fd5b6001828260405161064b929190610b82565b908152604051908190036020018120546001600160a01b0316903480156108fc02916000818181858888f1935050505015801561068c573d6000803e3d6000fd5b5034600283836040516106a0929190610b82565b9081526020016040518091039020546106b99190610b92565b600283836040516106cb929190610b82565b908152604051908190036020019020555050565b6000806001600160a01b031661072a84848080601f01602080910402602001604051908101604052809392919081815260200183838082843760009201919091525061034e92505050565b6001600160a01b03160361073d57600080fd5b60035460028484604051610752929190610b82565b90815260200160405180910390205461076b9190610bb8565b9392505050565b6000546001600160a01b0316331461079c5760405162461bcd60e51b81526004016103a990610b13565b6001600160a01b0381166108015760405162461bcd60e51b815260206004820152602660248201527f4f776e61626c653a206e6577206f776e657220697320746865207a65726f206160448201526564647265737360d01b60648201526084016103a9565b6105f68161084e565b8060018360405161081b9190610af7565b90815260405190819003602001902080546001600160a01b03929092166001600160a01b03199092169190911790555050565b600080546001600160a01b038381166001600160a01b0319831681178455604051919092169283917f8be0079c531659141344cd1fd0a4f28419497f9722a3daafe3b4186f6b6457e09190a35050565b60008083601f8401126108b057600080fd5b50813567ffffffffffffffff8111156108c857600080fd5b6020830191508360208285010111156108e057600080fd5b9250929050565b80356001600160a01b03811681146108fe57600080fd5b919050565b60008060006040848603121561091857600080fd5b833567ffffffffffffffff81111561092f57600080fd5b61093b8682870161089e565b909450925061094e9050602085016108e7565b90509250925092565b634e487b7160e01b600052604160045260246000fd5b60006020828403121561097f57600080fd5b813567ffffffffffffffff8082111561099757600080fd5b818401915084601f8301126109ab57600080fd5b8135818111156109bd576109bd610957565b604051601f8201601f19908116603f011681019083821181831017156109e5576109e5610957565b816040528281528760208487010111156109fe57600080fd5b826020860160208301376000928101602001929092525095945050505050565b600060208284031215610a3057600080fd5b5035919050565b60005b83811015610a52578181015183820152602001610a3a565b83811115610a61576000848401525b50505050565b6020815260008251806020840152610a86816040850160208701610a37565b601f01601f19169190910160400192915050565b600060208284031215610aac57600080fd5b61076b826108e7565b60008060208385031215610ac857600080fd5b823567ffffffffffffffff811115610adf57600080fd5b610aeb8582860161089e565b90969095509350505050565b60008251610b09818460208701610a37565b9190910192915050565b6020808252818101527f4f776e61626c653a2063616c6c6572206973206e6f7420746865206f776e6572604082015260600190565b600181811c90821680610b5c57607f821691505b602082108103610b7c57634e487b7160e01b600052602260045260246000fd5b50919050565b8183823760009101908152919050565b60008219821115610bb357634e487b7160e01b600052601160045260246000fd5b500190565b600082610bd557634e487b7160e01b600052601260045260246000fd5b50049056fea2646970667358221220f1dd069fee58d5601892d00bb418ceb95cf088315089af63a7d788bf11180b5764736f6c634300080d0033",
  "immutableReferences": {},
  "source": "// SPDX-License-Identifier: UNLICENSED\r\n\r\npragma solidity ^0.8.0;\r\n\r\nimport \"./Ownable.sol\";\r\n\r\n/// @title Donate\r\n/// @author ImInnocent\r\n/// @notice       \r\ncontract Donate is Ownable {\r\n    //   \r\n    mapping (string => address payable) public registered;\r\n    //    \r\n    mapping (string => uint) public sum;\r\n    //  \r\n    uint public coffeePrice = 0.01 ether;\r\n    //  \r\n    string public ownerName = \"goldfish\";\r\n\r\n    /// @notice owner  . \r\n    constructor() {\r\n        setRegistered(ownerName, payable(_msgSender()));\r\n    }\r\n\r\n    /// @notice registered \r\n    /// @param _name  \r\n    function getRegistered(string memory _name) public view returns (address) {\r\n        return registered[_name];\r\n    }\r\n\r\n    /// @notice     \r\n    /// @param _name  \r\n    /// @param _addr  \r\n    function setRegistered(string memory _name, address payable _addr) private {\r\n        registered[_name] = _addr;\r\n    }\r\n\r\n    /// @notice    .   .\r\n    /// @param _user   \r\n    /// @return   .\r\n    function getReceivedCoffee(string calldata _user) view external returns (uint) {\r\n        require(getRegistered(_user) != address(0));\r\n\r\n        return sum[_user] / coffeePrice;\r\n    }\r\n\r\n    /// @notice    ( )\r\n    /// @param _coffeePrice   (0  )\r\n    function changeCoffeePrice(uint _coffeePrice) external onlyOwner {\r\n        require(_coffeePrice > 0);\r\n\r\n        coffeePrice = _coffeePrice;\r\n    }\r\n\r\n    /// @notice    . ( )\r\n    /// @param _addr   \r\n    function changeReceiveAddress(address _addr) external onlyOwner {\r\n        require(getRegistered(ownerName) != payable(_addr));\r\n\r\n        setRegistered(ownerName, payable(_addr));\r\n    }\r\n\r\n    /// @notice       \r\n    /// @param _user    \r\n    function donate(string calldata _user) payable external {\r\n        //     \r\n        require(registered[_user] != address(0));\r\n\r\n        registered[_user].transfer(msg.value);\r\n        sum[_user] = sum[_user] + msg.value;\r\n    }\r\n\r\n    /// @notice    \r\n    /// @param _user  \r\n    /// @param _addr  \r\n    function register(string calldata _user, address _addr) external {\r\n        //     \r\n        require(getRegistered(_user) == address(0));\r\n\r\n        setRegistered(_user, payable(_addr));\r\n    }\r\n}\r\n",
  "sourcePath": "C:\\Users\\user\\Documents\\GitHub\\cheers-coffee-contract\\contracts\\Donate.sol",
  "compiler": {
    "name": "solc",
    "version": "0.8.13+commit.abaa5c0e.Emscripten.clang"
  },
  "schemaVersion": "3.4.7",
  "updatedAt": "2022-04-28T09:54:02.079Z",
  "devdoc": {
    "author": "ImInnocent",
    "kind": "dev",
    "methods": {
      "changeCoffeePrice(uint256)": {
        "params": {
          "_coffeePrice": "  (0  )"
        }
      },
      "changeReceiveAddress(address)": {
        "params": {
          "_addr": "  "
        }
      },
      "donate(string)": {
        "params": {
          "_user": "   "
        }
      },
      "getReceivedCoffee(string)": {
        "params": {
          "_user": "  "
        },
        "returns": {
          "_0": "  ."
        }
      },
      "getRegistered(string)": {
        "params": {
          "_name": " "
        }
      },
      "owner()": {
        "details": "Returns the address of the current owner."
      },
      "register(string,address)": {
        "params": {
          "_addr": " ",
          "_user": " "
        }
      },
      "renounceOwnership()": {
        "details": "Leaves the contract without owner. It will not be possible to call `onlyOwner` functions anymore. Can only be called by the current owner. NOTE: Renouncing ownership will leave the contract without an owner, thereby removing any functionality that is only available to the owner."
      },
      "transferOwnership(address)": {
        "details": "Transfers ownership of the contract to a new account (`newOwner`). Can only be called by the current owner."
      }
    },
    "title": "Donate",
    "version": 1
  },
  "userdoc": {
    "kind": "user",
    "methods": {
      "changeCoffeePrice(uint256)": {
        "notice": "   ( )"
      },
      "changeReceiveAddress(address)": {
        "notice": "   . ( )"
      },
      "constructor": {
        "notice": "owner  . "
      },
      "donate(string)": {
        "notice": "      "
      },
      "getReceivedCoffee(string)": {
        "notice": "   .   ."
      },
      "getRegistered(string)": {
        "notice": "registered "
      },
      "register(string,address)": {
        "notice": "   "
      }
    },
    "notice": "      ",
    "version": 1
  }
}